:020000040800F2
:1000000000000120ED010008310100083101000865
:100010003101000831010008310100080000000032
:100020000000000000000000000000003101000896
:100030003101000800000000310100083101000812
:1000400031010008310100083101000831010008C8
:1000500031010008310100083701000843010008A0
:100060004F0100085B01000867010008310100082A
:100070003101000831010008310100083101000898
:10008000310100083101000831010008C7010008F2
:10009000D301000831010008310100087301000894
:1000A0003101000831010008310100083101000868
:1000B0003101000831010008310100083101000858
:1000C0003101000831010008310100083101000848
:1000D000310100088B01000897010008A301000806
:1000E0007F01000831010008DF010008310100082C
:1000F0003101000831010008310100083101000818
:100100003101000831010008310100083101000807
:10011000AF010008BB0100083101000831010008EF
:1001200031010008310100083101000831010008E7
:1001300080B400AFFEE780B400AF00BFBD4680BC16
:10014000704780B400AF00BFBD4680BC704780B42C
:1001500000AF00BFBD4680BC704780B400AF00BF99
:10016000BD4680BC704780B400AF00BFBD4680BCB8
:10017000704780B400AF00BFBD4680BC704780B4FC
:1001800000AF00BFBD4680BC704780B400AF00BF69
:10019000BD4680BC704780B400AF00BFBD4680BC88
:1001A000704780B400AF00BFBD4680BC704780B4CC
:1001B00000AF00BFBD4680BC704780B400AF00BF39
:1001C000BD4680BC704780B400AF00BFBD4680BC58
:1001D000704780B400AF00BFBD4680BC704780B49C
:1001E00000AF00BFBD4680BC7047000080B487B040
:1001F00000AF114B7B61114BBB60114B3B61114B4D
:100200007B60114BFB6007E0FA68131DFB607B69A4
:10021000191D796112681A607A69BB689A42F3D332
:1002200004E03B691A1D3A6100221A603A697B6852
:100230009A42F6D3FEE700BF000000200000002035
:100240000000002000000020CC02000880B483B031
:1002500000AF00237B6002E07B6801337B607B683A
:10026000044A9342F8D900BF00BF0C37BD4680BC9A
:10027000704700BF3F420F0080B500AF114B9B6934
:10028000104A43F0100393610F4B5B680E4A23F44E
:10029000E00353600C4B5B680B4A43F4401353601C
:1002A000094BDB68084A23F40053D360FFF7CEFF05
:1002B000054BDB68044A43F40053D360FFF7C6FFE5
:0C02C000EEE700BF0010024000100140FB
:0400000508000130BE
:00000001FF
